:020000040000FA
:060000000A128A11FB2F19
:100F30000230F2000430F100BA30F000F00B9E2FC6
:100F4000F10B9E2FF20B9E2F00000130F3020130B7
:100F500083120313870208000230F2000430F1000C
:100F6000BA30F000F00BB22FF10BB22FF20BB22F10
:100F700000000130F0007008F3070130F000700845
:100F80008312031387070800831603138901831252
:100F9000031389018316031788018901063083161C
:100FA000031386008312031386018316031387013C
:100FB00083120313870108000A128A11C4270A1238
:100FC0008A1183120313861CE62FE72FEC2F0A12D7
:100FD0008A11AC270A128A1183120313061DF12FFE
:100FE000F22FE12F0A128A1198270A128A11E12F93
:100FF0000A128A110028F30183010A128A11DC2FD8
:04400E00D120FF3F7F
:00000001FF
