:020000040000FA
:060000000A128A11FA2F1A
:100EDA00740883120313870008000230F2000430FA
:100EEA00F100BA30F000F00B782FF10B782FF20BEB
:100EFA00782F00000130F40208000230F2000430BA
:100F0A00F100BA30F000F00B882FF10B882FF20BAA
:100F1A00882F00000130F0007008F407F301F30A8B
:100F2A0008008312031309150530F2000F30F1008F
:100F3A00F130F000F00B9F2FF10B9F2FF20B9F2F38
:100F4A00F40183120313091187010800831603139E
:100F5A008901831203138901831603178801063056
:100F6A008316031386008312031386018316031361
:100F7A0087018312031387010A30F0007008F50015
:100F8A0008000A128A11AB270A128A118312031364
:100F9A00861CD02FD12FDB2F0A128A1182270A1220
:100FAA008A110A128A116D270A128A1183120313EF
:100FBA00061DE02FE12FEB2F0A128A1172270A125F
:100FCA008A110A128A116D270A128A117508740683
:100FDA00031DF02FF12FCB2F0A128A1196270A121E
:100FEA008A11CB2F0A128A110028F301F401830116
:060FFA000A128A11C62F45
:04400E00D120FF3F7F
:00000001FF
