:020000040000FA
:060000000A128A11FA2F1A
:100E9A0074088312031387000800831603139F0143
:100EAA00831203139F131F179F161F169F111F11DB
:100EBA009F101F1408000230F2000430F100BA300B
:100ECA00F000F00B662FF10B662FF20B662F000075
:100EDA000130F40208000230F2000430F100BA30A6
:100EEA00F000F00B762FF10B762FF20B762F000025
:100EFA000130F0007008F407F301F30A08008312C6
:100F0A00031309150530F2000F30F100F130F0003B
:100F1A00F00B8D2FF10B8D2FF20B8D2FF401831215
:100F2A000313091187010800831603138901831229
:100F3A0003138901831603178801063083160313E6
:100F4A008600831203138601831603138701831213
:100F5A00031387010330F0007008F500F3010A1249
:100F6A008A1152270A128A1108000A128A1199272D
:100F7A000A128A1183120313861CC42FC52FCF2F7E
:100F8A000A128A1170270A128A110A128A114D2727
:100F9A000A128A1183120313061DD42FD52FDF2FAD
:100FAA000A128A1160270A128A110A128A114D2717
:100FBA000A128A11831203139F18E42FE52FE62FD2
:100FCA009F147303031DEA2FEB2FBF2F75087406B6
:100FDA00031DF02FF12FBF2F0A128A1184270A123C
:100FEA008A11BF2F0A128A110028F301F401830122
:060FFA000A128A11BA2F51
:04400E00D120FF3F7F
:00000001FF
