:020000040000FA
:060000000A128A11FB2F19
:100EDE00740883120313870008000230F2000430F6
:100EEE00F100BA30F000F00B7A2FF10B7A2FF20BE3
:100EFE007A2F00000130F40208000230F2000430B4
:100F0E00F100BA30F000F00B8A2FF10B8A2FF20BA2
:100F1E008A2F00000130F0007008F40708008312D9
:100F2E00031309150530F2000F30F100F130F00017
:100F3E00F00B9F2FF10B9F2FF20B9F2FF4018312BB
:100F4E000313091187010800831603138901831205
:100F5E00031389018316031788018901063083164E
:100F6E00031386008312031386018316031387016E
:100F7E008312031387010330F0007008F30008009A
:100F8E000A128A11AB270A128A1183120313861CC6
:100F9E00D12FD22FDC2F0A128A1184270A128A111E
:100FAE000A128A116F270A128A1183120313061D61
:100FBE00E12FE22FEC2F0A128A1174270A128A11DE
:100FCE000A128A116F270A128A1173087406031DFA
:100FDE00F12FF22FCC2F0A128A1196270A128A119C
:100FEE00CC2F0A128A110028F40183010A128A11E9
:020FFE00C72FFB
:04400E00D120FF3F7F
:00000001FF
